:020000040800F2
:1000000000000320690C0008552B0008572B00083E
:10001000592B00085B2B00085D2B00080000000036
:10002000000000000000000000000000418D0008FA
:100030005F2B000800000000D18D00085D860008DD
:10004000B90C0008B90C0008B90C0008B90C00087C
:10005000B90C0008B90C0008B90C0008B90C00086C
:10006000B90C0008B90C0008B90C0008B90C00085C
:10007000B90C0008B90C0008B90C0008B90C00084C
:10008000B90C0008B90C0008B90C0008B90C00083C
:10009000B90C0008B90C0008B90C0008B90C00082C
:1000A000B90C0008B90C0008B90C0008B90C00081C
:1000B000B90C0008B90C0008B90C0008B90C00080C
:1000C000B90C0008B90C0008B90C0008B90C0008FC
:1000D000B90C0008B90C0008B90C0008B90C0008EC
:1000E000B90C0008B90C0008B90C0008B90C0008DC
:1000F000B90C0008B90C0008B90C0008B90C0008CC
:10010000B90C0008B90C0008B90C0008B90C0008BB
:10011000B90C0008B90C0008612B0008B90C0008E4
:10012000B90C0008B90C0008B90C0008B90C00089B
:10013000B90C0008B90C0008B90C0008B90C00088B
:10014000B90C0008B90C0008B90C0008B90C00087B
:10015000B90C0008B90C0008B90C0008B90C00086B
:10016000B90C0008B90C0008B90C0008B90C00085B
:10017000B90C0008B90C0008B90C00080000000018
:10018000B90C0008B90C0008B90C0008B90C00083B
:10019000B90C0008B90C0008B90C0008B90C00082B
:0C01A0006D2B0008B90C0008792B00083A
:1001B00010B5054C237833B9044B13B10448AFF3A1
:1001C00000800123237010BD6003002000000000A8
:1001D0004C57020808B5034B1BB103490348AFF362
:1001E000008008BD00000000640300204C57020896
:1001F00001F0FF01102A2BDB10F0070F08D010F8D8
:10020000013B013A8B422DD010F0070F42B3F6D1DB
:10021000F0B441EA012141EA014122F007047FF0F4
:1002200000070023F0E80256083C85EA010586EA4B
:10023000010685FA47F5A3FA87F586FA47F6A5FA87
:1002400087F68EB9EED1F0BC01F0FF0102F0070293
:1002500032B110F8013B013A83EA010313B1F8D13E
:100260000020704701387047002D06BF354603381F
:10027000073815F0010F07D1013015F4807F02BF58
:10028000013015F4C03F0130F0BC0138704700BFA9
:1002900070B54FF0FF0C4CF4E06C1CEA11541DBF1C
:1002A0001CEA135594EA0C0F95EA0C0F00F0DEF8E7
:1002B0002C4481EA030621EA4C5123EA4C5350EACC
:1002C000013518BF52EA033541F4801143F480131D
:1002D00038D0A0FB02CE4FF00005E1FB02E506F0AE
:1002E0000042E0FB03E54FF00006E1FB03569CF003
:1002F000000F18BF4EF0010EA4F1FF04B6F5007F09
:1003000064F5407404D25FEA4E0E6D4146EB06067A
:1003100042EAC62141EA55514FEAC52040EA5E5003
:100320004FEACE2EB4F1FD0C88BFBCF5E06F1ED8AD
:10033000BEF1004F08BF5FEA500E50F1000041EBE4
:10034000045170BD06F0004646EA010140EA020091
:1003500081EA0301B4EB5C04C2BFD4EB0C0541EAB3
:10036000045170BD41F480114FF0000E013C00F3C8
:10037000AB8014F1360FDEBF002001F0004170BDEC
:10038000C4F10004203C35DA0C341BDC04F1140405
:10039000C4F1200500FA05F320FA04F001FA05F291
:1003A00040EA020001F0004221F0004110EBD3705E
:1003B00021FA04F642EB06015EEA430E08BF20EA8A
:1003C000D37070BDC4F10C04C4F1200500FA04F32D
:1003D00020FA05F001FA04F240EA020001F00041BF
:1003E00010EBD37041F100015EEA430E08BF20EA32
:1003F000D37070BDC4F1200500FA05F24EEA020E7A
:1004000020FA04F301FA05F243EA020321FA04F0A8
:1004100001F0004121FA04F220EA020000EBD3705F
:100420005EEA430E08BF20EAD37070BD94F0000F5F
:100430000FD101F00046400041EB010111F4801F93
:1004400008BF013CF7D041EA060195F0000F18BF44
:10045000704703F00046520043EB030313F4801F80
:1004600008BF013DF7D043EA0603704794EA0C0F3A
:100470000CEA135518BF95EA0C0F0CD050EA410650
:1004800018BF52EA4306D1D181EA030101F00041CD
:100490004FF0000070BD50EA410606BF10461946F5
:1004A00052EA430619D094EA0C0F02D150EA013601
:1004B00013D195EA0C0F05D152EA03361CBF104642
:1004C00019460AD181EA030101F0004141F0FE41E1
:1004D00041F470014FF0000070BD41F0FE4141F465
:1004E000780170BD81F0004102E000BF83F000435D
:1004F00030B54FEA41044FEA430594EA050F08BFBF
:1005000090EA020F1FBF54EA000C55EA020C7FEA82
:10051000645C7FEA655C00F0E2804FEA5454D4EBFF
:100520005555B8BF6D420CDD2C4480EA020281EAC9
:10053000030382EA000083EA010180EA020281EA01
:100540000303362D88BF30BD11F0004F4FEA013153
:100550004FF4801C4CEA113102D0404261EB410162
:1005600013F0004F4FEA03334CEA133302D05242E8
:1005700063EB430394EA050F00F0A780A4F10104A4
:10058000D5F1200E0DDB02FA0EFC22FA05F28018DE
:1005900041F1000103FA0EF2801843FA05F35941C4
:1005A0000EE0A5F120050EF1200E012A03FA0EFC43
:1005B00028BF4CF0020C43FA05F3C01851EBE3716D
:1005C00001F0004507D54FF0000EDCF1000C7EEB8A
:1005D00000006EEB0101B1F5801F1BD3B1F5001FC8
:1005E0000CD349085FEA30004FEA3C0C04F10104E7
:1005F0004FEA445212F5800F80F09A80BCF1004F10
:1006000008BF5FEA500C50F1000041EB045141EA91
:10061000050130BD5FEA4C0C404141EB0101013C5A
:1006200028BFB1F5801FE9D291F0000F04BF014649
:100630000020B1FA81F308BF2033A3F10B03B3F11B
:1006400020020CDA0C3208DD02F1140CC2F10C02AB
:1006500001FA0CF021FA02F10CE002F11402D8BF09
:10066000C2F1200C01FA02F120FA0CFCDCBF41EAD5
:100670000C019040E41AA2BF01EB0451294330BDA4
:100680006FEA04041F3C1CDA0C340EDC04F1140481
:10069000C4F1200220FA04F001FA02F340EA030058
:1006A00021FA04F345EA030130BDC4F10C04C4F19E
:1006B000200220FA02F001FA04F340EA030029467E
:1006C00030BD21FA04F0294630BD94F0000F83F4C8
:1006D000801306BF81F480110134013D4EE77FEAAB
:1006E000645C18BF7FEA655C29D094EA050F08BFF7
:1006F00090EA020F05D054EA000C04BF19461046D8
:1007000030BD91EA030F1EBF0021002030BD5FEA1B
:10071000545C05D14000494128BF41F0004130BD43
:1007200014F580043CBF01F5801130BD01F0004597
:1007300045F0FE4141F470014FF0000030BD7FEA0A
:10074000645C1ABF194610467FEA655C1CBF0B4605
:10075000024650EA013406BF52EA033591EA030F1C
:1007600041F4002130BD00BF90F0000F04BF002114
:10077000704730B54FF4806404F132044FF0000547
:100780004FF0000150E700BF90F0000F04BF0021C0
:10079000704730B54FF4806404F1320410F0004526
:1007A00048BF40424FF000013EE700BF42004FEA21
:1007B000E2014FEA31014FEA02701FBF12F07F439E
:1007C00093F07F4F81F06051704732F07F4208BF55
:1007D000704793F07F4F04BF41F40021704730B55C
:1007E0004FF4607401F0004521F000411CE700BFA8
:1007F00050EA010208BF704730B54FF000050AE02B
:1008000050EA010208BF704730B511F0004502D52B
:10081000404261EB41014FF4806404F132045FEA2D
:10082000915C3FF4D8AE4FF003025FEADC0C18BFD6
:1008300003325FEADC0C18BF033202EBDC02C2F1C8
:10084000200300FA03FC20FA02F001FA03FE40EA5A
:100850000E0021FA02F11444BDE600BF4A0011D295
:1008600012F5001211D20DD56FF47873B3EB62520A
:100870000ED44FEAC12343F0004343EA505323FA16
:1008800002F070474FF00000704750EA013002D18B
:100890004FF0FF3070474FF0000070477BB972B9DE
:1008A0000029BEBF00204FF0004106E008BF00282D
:1008B0001CBF6FF000414FF0FF3000F0D3B9ADF135
:1008C000080C6DE904CE002909DB002B1ADB00F0CF
:1008D0004DF8DDF804E0DDE9022304B07047404242
:1008E00061EB4101002B1BDB00F040F8DDF804E078
:1008F000DDE9022304B0404261EB4101524263EB67
:1009000043037047524263EB430300F02FF8DDF8D6
:1009100004E0DDE9022304B0404261EB410170478D
:10092000524263EB430300F021F8DDF804E0DDE917
:10093000022304B0524263EB4303704753B94AB9F0
:10094000002908BF00281CBF4FF0FF314FF0FF30D7
:1009500000F088B9ADF1080C6DE904CE00F006F89E
:10096000DDF804E0DDE9022304B070472DE9F0472B
:10097000089D8E4604468846002B4AD18A42174677
:1009800062D9B2FA82F64EB1C6F1200301FA06F836
:1009900020FA03F3B74043EA0808B4404FEA174E81
:1009A0001FFA87FCB8FBFEF1230C0EFB118843EA0B
:1009B000084301FB0CF29A4209D9FB1801F1FF3000
:1009C00080F0EA809A4240F2E78002393B449A1A6A
:1009D000A3B2B2FBFEF00EFB102243EA024300FB7F
:1009E0000CFC9C4509D9FB1800F1FF3280F0D68041
:1009F0009C4540F2D3803B44023840EA0140A3EBDF
:100A00000C0300211DB1F3400022C5E90032BDE80E
:100A1000F0878B4205D90DB1C5E9000100210846D8
:100A2000F5E7B3FA83F1002946D1734502D3824238
:100A300000F20581841A6EEB030201209046002D1E
:100A4000E5D0C5E90048E2E7002A00F09080B2FA5C
:100A500082F6002E40F0A4808A1A030C4FEA174E4B
:100A600080B2BCB20121B2FBFEFC0EFB1C2243EAA9
:100A7000024304FB0CF29A4207D9FB180CF1FF3831
:100A800002D29A4200F2E080C4469B1AB3FBFEF207
:100A90000EFB123340EA034302FB04F49C4207D9E5
:100AA000FB1802F1FF3002D29C4200F2CA800246DB
:100AB0001B1B42EA0C40A5E7C1F120068B4022FA3D
:100AC00006F71F430EFA01F420FA06F32EFA06FE8B
:100AD0004FEA1749234300FA01F81FFA87FCBEFBCF
:100AE000F9F01C0C09FB10EE44EA0E4400FB0CFE6E
:100AF000A64502FA01F209D93C1900F1FF3A80F04B
:100B00009C80A64540F2998002383C44A4EB0E0438
:100B10001FFA83FEB4FBF9F309FB13444EEA0444C5
:100B200003FB0CFCA44508D93C1903F1FF3E80F0FF
:100B30008280A4457FD9023B3C4443EA0040A4EBB9
:100B40000C04A0FB02EC64457346E14662D35FD01F
:100B50005DB1B8EB030264EB090404FA06F622FA6D
:100B600001F31E43CC40C5E9006400214FE7B1FB0F
:100B7000F2FC010C41EA0E4180B240EA01423B46E0
:100B800038463C46B846BE462026B1FBF7F1A2EBFC
:100B9000080241EA0C4166E7014618E710462CE7D7
:100BA000C6F120022EFA02F3B740B14020FA02F259
:100BB0004FEA174E0A43B3FBFEF8BCB20EFB1833E4
:100BC000110C41EA034108FB04F9B04089454FEAA2
:100BD000104380B23ED9791808F1FF3C01D2894513
:100BE0001FD8A1EB0901B1FBFEF909FB04F80EFBCC
:100BF000191192B242EA0142424529D2BA1809F1CA
:100C0000FF31C4D24245C2D2A9F102013A44BEE743
:100C1000F0459DD2BEEB02036CEB070C0138E146B8
:100C200096E7A7EB09094944A8F1020CB1FBFEF9CC
:100C300009FB04F8DBE773467FE7504666E70846A2
:100C4000FDE63B44023A33E7ACF1020C3B441CE7BF
:100C500049469CE7A1EB0901C446B1FBFEF909FB3B
:100C600004F8C4E7704700BFDFF834D0002103E088
:100C70000C4B5B58435004310B480C4B42189A42C2
:100C8000F6D30B4A02E0002342F8043B094B9A4298
:100C9000F9D304F08FFE23F09FFF01F0CFF87047E7
:100CA00000000320484509080000002060010020E2
:100CB0006003002038450120FEE7704708B500F0CA
:100CC000D9FDBDE8084000F05BBD00F0D5BD704720
:100CD00010B50421044622F0F4FD204610BD0000AA
:100CE00038B50C4B0C4C18800C4B82201980636873
:100CF000984740F6110398420AD1094D23682C60A9
:100D0000822098472B688220DB689847002038BDF6
:100D10000120FCE7860300204C0000208403002013
:100D2000880300204FF4A071F020FFF7D9BF000026
:100D3000F7B5394D2B6804461B69822098472080FF
:100D400000284ED02B680DF106025B6901A98220B4
:100D50009847324B1B78002B4BD0BDF8062040F64D
:100D600074639A423FD9ADF80630BDF806209B1A4D
:100D70009BB20A2B42D90B22B3FBF2F3284A12880A
:100D8000934201D9013A93B2BDF80420254840F6B8
:100D9000B8318A4234D8C2F571620E32016892B21B
:100DA0000F25B2FBF5F2204D2D88AA4284BF05F134
:100DB000FF35AAB28A4215468EB22AD9921B91B249
:100DC0001A4E3768BB42BAB28CBF9A1AD21A92B284
:100DD00011440529C4BF056033600368638033682C
:100DE000A38003B0F0BDB32A9CBFB422ADF80620A7
:100DF000BBE7BDF80630A3F5B473B9E70023C3E73A
:100E0000C2F56D62083292B20E2A0168C8D8002578
:100E10002A46891A89B2D3E7880300208427002054
:100E20008403002080030020860300207C03002030
:100E300037B568460D461446FFF77AFFBDF8000047
:100E400030B1BDF802302B60BDF8043023600120C2
:100E500003B030BD032821D8DFE800F0020B1219DF
:100E60000F4B1A68B2FA82F2520904210D4805F0BC
:100E700067BA0B4B5A68B2FA82F252090821F5E7B9
:100E8000074B9A68B2FA82F252091021EEE7044B3E
:100E9000DA68B2FA82F252092021E7E7704700BF10
:100EA0008C03002000100240032821D8DFE800F066
:100EB000020B12190F4B1A68003A18BF01220421C5
:100EC0000D4805F03DBA0B4B5A68003A18BF012295
:100ED0000821F5E7074B9A68003A18BF0122102154
:100EE000EEE7044BDA68003A18BF01222021E7E759
:100EF000704700BF8C0300200010024003280DD86B
:100F0000DFE800F00206080A0421054805F01DBAD2
:100F10000821FAE71021F8E72021F6E7704700BF23
:100F20000010024008B5032811D8DFE800F0020ADB
:100F30000C0E0421074805F0FDF9431E58425841A4
:100F400008BD0821F6E71021F4E72021F2E7002090
:100F5000F3E700BF0010024070B5084D00240126E1
:100F6000E0B2FFF7DFFF18B12B68012B18BF2E602E
:100F70000134052C05F10405F2D170BD8C0300206D
:100F8000012380F87C1080F87D3070477047002086
:100F900070470000034B8164003918BF01211970AC
:100FA000704700BFF3370120704700207047C36BC4
:100FB0000BB10846184770474FF6FF7070474068FE
:100FC00003689B69184770477047704770477047C0
:100FD00010B5044600F068FD23680349D3F890304B
:100FE0002046BDE810401847000000D008B503684F
:100FF0000446D3F88430984723682046DB6F98472F
:1010000000F008F9236820465B6F9847292001F01B
:101010007DFA00F0FFF8236820465B6F9847F8E7F9
:1010200010B504460AF0C4FC23682046D3F8BC304F
:10103000BDE81040184700F01BBD00F01FBD00F0D8
:1010400051BD00F0F1BC00F061BD00F069BD00F0E1
:10105000F5BC09F0A0BE10B58821044622F031FC91
:10106000204610BD10B590F8381090F87C400C4B1D
:101070008C421A7809D03AB90A4A0B491488088870
:1010800010800C8001221A7010BD002AFCD0054A85
:1010900005491488088810800C800022F3E700BFFF
:1010A000F2370120FC370120FA37012008B5094B3F
:1010B0001B888B4203D8084B1B88934205D9074BEA
:1010C000074A0848A52123F01BFB074B1980074B53
:1010D0001A8008BDFC370120FA370120BC570208EE
:1010E0001F58020862580208F8370120F63701201D
:1010F0002DE9F0410D460446194635B9154B164AFF
:10110000164840F2013123F0FBFAC0E9105203689F
:10111000134ED3F89030003A18BF0122327098472E
:10112000E569A5B12B681F68337873B12368204641
:101130005B6B9847236C834207D1616C094B28464F
:101140001A883B46BDE8F0411847216CF6E7BDE838
:10115000F08100BFA7580208DF5802086258020851
:10116000F4370120F8370120034690F87E0018B1CB
:10117000586803681B68184770470000012108B5CC
:101180000022084607F0F4FA0A4B186028B90A4B07
:101190000A4A28210A4823F0B3FA00220421012038
:1011A00007F085FB074B186018B9074B034A2C2141
:1011B000F0E708BDA00300202D5902087659020867
:1011C000A55902089C030020F0590208024B4FF079
:1011D000FF31186807F016BBA0030020014B186808
:1011E00007F03CBBA0030020024B0021186807F069
:1011F00009BB00BFA0030020FFF7F0BF034804496C
:10120000006800231A4607F08DBB00BF9C03002036
:101210000400002013B5084C00231A4601A92068D9
:1012200007F0B1FB20684FF0FF33002201A907F05F
:10123000AAFB02B010BD00BF9C03002003685B6CDA
:1012400018470120704703689B6A1847FEE740F281
:10125000EF307047054B0360054B4FF08062C3F8D9
:101260008820BFF34F8FBFF36F8F7047046602086B
:1012700000E100E010B504464FF45A61FFF7EAFFC1
:10128000204622F01EFB204610BD000082B0002345
:1012900001930E4B1A6B42F400021A631A6B02F4AC
:1012A00000020192019A1A6942F400021A611A6955
:1012B00022F400021A61064B064A1A61064A5A6174
:1012C000064B4FF080629A6002B0704700380240CF
:1012D0001C2900202D1500084D12000800E100E037
:1012E00008B50A2809D8DFE800F006100E0808083B
:1012F000081010101000022008BD054B054A0648D2
:10130000902123F0FDF90020F6E70120F4E700BF6B
:10131000325A02084D5A0208985A020838B50C464B
:10132000887FFFF7DDFFA58AE28A164B21695863A3
:1013300042EA05425A64628BD963521B1A642568DB
:10134000082D0ED19A611A615862207F0E4A42EA36
:101350000062DA61E2681A620C4A5961D9601A6067
:1013600038BD0022D8611A61E1680A0A480902F40E
:10137000784200F4FC600243C1F3C4010A439A635B
:10138000034AECE700B0024009000100012302001B
:101390000123030008B50B280BD8DFE800F0061284
:1013A000100A0A0A0A0808080808022008BD0520D1
:1013B000FCE7054B054A06486F2123F0A1F9002000
:1013C000F4E70120F2E700BF325A0208E15A0208AE
:1013D000985A02082DE9F04191F81D800C464046CC
:1013E000FFF7D8FFA77F05463846FFF7D3FF06462D
:1013F0003846FFF775FFA18A628B444B521A1A6474
:101400009A61228B521A1A61E28A586342EA0142B7
:101410005A6421696268D963DA602068802828D01C
:10142000227F0FD8202867D0402865D004281AD002
:10143000364B45EA026545F40035B845DD6161D0BB
:10144000334A44E0B0F5807F04D0B0F5007FEFD19F
:10145000304800E0304840EA0262DA61E2681A622D
:101460005E62596132E045EA026242F40032DA61BA
:10147000F6E7A068021DDA62227F45EA026545F4BC
:101480000035DD615E625961017841B1012921D0E9
:10149000224B234A23484FF48D7123F031F9DA6946
:1014A000418822F47F42013922F0100242EA0122EF
:1014B000DA610121154BDA6942F02002DA61DA695A
:1014C0009206FCD410229A600029B9D0164A1A60FC
:1014D000BDE8F081B2F1FF01DA69408822F47F4271
:1014E00000F1FF3022F0100242EA002242F0100226
:1014F00018BF0121DA61DDE745EA0262034B42F4DD
:101500000032B4E742F20132E1E700BF00B002402E
:1015100001230100090002000A0002002B5B0208FF
:10152000455B0208985A020801230200024B1B681F
:10153000586803685B6918470038012070B5044695
:1015400025460A4B0C30002660602672667245F80C
:10155000203B602229460AF095FB04F55A63EE60B1
:1015600024359D42FBD1204670BD00BF04660208B1
:10157000034B1A68D207FCD423229A60704700BF3D
:1015800000B002407047000030B50F4C2568ED07F1
:10159000FCD423250904A56041F001010225FF2B9D
:1015A00065636164E0630AD00849656241EA0363E8
:1015B000E361074B22626061E060236030BDE5615A
:1015C000039BA363034BF8E700B00240090001004E
:1015D000010002000100030030B50E4C2568ED0744
:1015E000FCD423251204A56042F001020225FF2B42
:1015F00065636264E063E16008D01B0643F0021398
:10160000E361054B65626061236030BD034BE361BC
:101610000123F9E700B0024001000200020002FFCE
:1016200030B50B4C2568ED07FCD4232512041B06AE
:10163000A56043F40033022542F001026563626451
:10164000E063E160E361034B65626061236030BD8C
:1016500000B00240010002000120704740207047A6
:1016600000EB81100830704700EB811008307047A4
:101670000120704741F2C810704741F2C81303FBC4
:1016800001000830704741F2C81303FB0100083025
:101690007047012070471020704700EB01100830A0
:1016A000704700EB011008307047084601F0D4BCC9
:1016B00010B5034B0360044609F0BDF8204610BD89
:1016C000BC66020810B50446FFF7F2FF2046482129
:1016D00022F0F7F8204610BD10B5034B0360044616
:1016E00009F0A9F8204610BD8866020810B5044626
:1016F000FFF7F2FF204641F2D01122F0E2F8204637
:1017000010BD000010B5034B0360044609F093F8C8
:10171000204610BD5466020810B50446FFF7F2FFDC
:101720002046182122F0CDF8204610BD10B5094BF7
:101730000360044600F58F501C30FFF7B9FF04F139
:101740002C00FFF7C9FF04F11400FFF7DBFF204670
:1017500010BD00BFF066020808B50248FFF7E6FFBB
:1017600008BD00BF8012002010B50446FFF7DEFF61
:10177000204641F2A83122F0A4F8204610BD000016
:101780002DE9F34101F072FA054601F073FA0024E5
:101790000146234628462246009413F02BF8274B97
:1017A000274A1A60204602F06BFD264D264B274A39
:1017B00027489A6012F084FF2B68BFF35B8FDB072A
:1017C00036D4284622F07FF890B3224C224F234B88
:1017D000236007F1500604F1140004F12C08606046
:1017E000C4F80880E760266109F026F81C4B6361A5
:1017F000404609F021F81B4BE362384609F01CF81B
:1018000004F5805303F51170174AC3F8FC2102F068
:10181000BFFD224607F14801304602F0AFFD3046D9
:1018200001F01AFC114822F089FF284622F057F8EF
:101830000F4802B0BDE8F041FFF7CABB5C38012099
:101840002C0400207C1200204C04002030040020D6
:1018500008000020801200207C240020F06602088E
:101860005466020888660208BC6602085917000818
:10187000A4030020704700000148FFF7B7BB00BF7A
:10188000A403002070B5274E274C284D284B236019
:101890003046FFF753FE284618F030FA254810F07E
:1018A00029FD254B2548DC6000224FF48071C3E9F7
:1018B000131223491A63C3E91B1222499A86C3E90A
:1018C0001F012149C3F884102049214883F85C2076
:1018D000C3E90422C3E90622C3E90822C3E90A22B4
:1018E000C3E90F22C3E91122C3E91522C3E9182273
:1018F0009A6683F874209A67C3E901650B60F0214A
:1019000001801448018014484FF4A07101801348ED
:10191000018013490A70012283F83820114A1A60A5
:1019200070BD00BFD8040020781200204C040020B5
:10193000AC57020830040020A4030020000001017D
:1019400001000001000450001A00140000380120BA
:10195000FC370120F8370120FA370120F637012043
:10196000F2370120186502080148FFF773BC00BF79
:10197000D80400200020704781807047C1807047E4
:1019800001817047418170477047704770477047C9
:10199000704710B4C4880368121B84885B6D091BF0
:1019A00012B25DF8044B09B218474FF6FF738381FA
:1019B0004FF0FF3303621368C3611060704700206B
:1019C00070478B88838001207047704780F826100D
:1019D000704790F82600704710B50022B1F9084012
:1019E000B1F90A10028042808480C18010BD0022BB
:1019F000028042808280C28070470177704780ED0C
:101A0000080A704780F82410704780F82510704746
:101A100001207047983070478C3070478430704791
:101A20007047704770470000034B902283F85A2399
:101A300083F85823704700BF00E100E0094A0A49D3
:101A4000D3680A48C3F30A03013B9BB20B801169B8
:101A5000C1F30A01013901801364536B43F00103A0
:101A600053637047006801402A2600202826002082
:101A7000014BD3F8AC00704700680140024B0122D3
:101A8000C3F8AC105A6270470068014010B52C21B1
:101A9000044621F016FF204610BD10B5BC210446B7
:101AA00021F00FFF204610BD70B5044609F0C9F9BA
:101AB00023689D6E0FF000FA01462046A847236870
:101AC000054AD3F88C502046AC460023BDE8704050
:101AD000A2F51631604700BF00B004D009F098B9F4
:101AE00009F0A2B909F05DB909F0C9BA90F825204A
:101AF00012B103685B691847704790F825201AB146
:101B000090F8242002B1186070470000034B4FF09A
:101B100080629A604FF080729A60704700E100E046
:101B2000084B4FF08062C3F88820BFF34F8FBFF39C
:101B30006F8F4FF08072C3F88820BFF34F8FBFF3D1
:101B40006F8F704700E100E070B50023124E838074
:101B5000124B0360336893F85C2005460AB1186D98
:101B600000B9986803681B6B98473368B0FA80F433
:101B7000186D640930B103681B6B9847002808BFD3
:101B800044F001042CB9064B064A07482C2122F0E8
:101B9000B7FD284670BD00BF003801200467020869
:101BA000835B0208E15B02081A5C020870B5254EEF
:101BB0003568BFF35B8F15F0010540D1304621F049
:101BC00082FE00283BD0204C204B256104F13400DC
:101BD000C4E90035C4E90255E584A562A58510F085
:101BE00070FE04F158000BF011FD194BA36520465F
:101BF000184B40F8843BFFF7A7FF174BC4F884301D
:101C00002433C4F88C304FF4C803C4E928350023CA
:101C1000C4F8AC30C4F8B030C4F8B430C4F8B8304C
:101C20000E480F4BC4F89050C4F89C50C4F8A8500C
:101C3000C4F8983022F082FD304621F050FE024870
:101C400070BD00BF2C26002030260020CC75020875
:101C5000246702089C67020880750208251A00089C
:101C60006075020838B5184C23685BB3174B184AE7
:101C70001B6C11888B4216D1164B198805F068F938
:101C8000236893F86E200025013283F86E2083F8D4
:101C90008050FFF7B3FA206809F08AFE2846BDE8B5
:101CA0003840FFF7D7B805F053F924682368204679
:101CB0001B6A9847012384F880300020BDE8384033
:101CC000FFF7F2B838BD00BF0038012000680140BE
:101CD0002A2600202826002007B5064BADF806006E
:101CE0001B68054801220DF1060105F0D1FE03B085
:101CF0005DF804FB0C000020C827002030B595B02B
:101D0000102200210AA822F002FF1422002103A8B9
:101D100022F0FDFE00241E4B01941A6C42F080520A
:101D20001A641B6C03F080530193019B194B0294BE
:101D30001A6842F440421A601B6803F4404302935D
:101D40000122029B4FF48033CDE9082302254FF492
:101D500080030821CDE90E534FF4B473CDE910137D
:101D600008A804231393129505F04AF905F00EF91B
:101D70000F23CDE903354FF4A0504FF48053CDE944
:101D80000603052103A8059405F016FB15B030BD28
:101D9000003802400070004030B51C228FB0002493
:101DA0000DEB0200002122F0B2FECDE904441F4BEE
:101DB00000941A6C1E481F4D42F002021A641A6CFD
:101DC00002F002020092009A01941A6B42F00202A1
:101DD0001A631B6B03F0020301931022019B02A9FB
:101DE0000223CDE90223069304F0C0F91249AC6046
:101DF0005923C5E9001340F2F313C5E9033428461B
:101E00008023AB6106F06EFAFA236020CDE9070368
:101E1000224607A9284609940B9406F0BFFA2146EA
:101E2000284606F07FFB0FB030BD00BF00380240EF
:101E300000040240F0260020000400402DE9804804
:101E40009BB003F0C5FDFFF759FF142200210DA838
:101E500022F05DFE0024C94B00941A6BC848C94D9E
:101E600042F010021A631A6B02F010020092009AFC
:101E700001941A6B42F020021A631A6B02F02002DE
:101E80000192019A02941A6B42F080021A631A6B53
:101E900002F080020292029A03941A6B42F004024A
:101EA0001A631A6B02F004020392039A04941A6BE9
:101EB00042F001021A631A6B02F001020492049AC2
:101EC00005941A6B42F002021A631A6B02F00202C6
:101ED0000592059A06941A6B42F040021A631A6B37
:101EE00002F040020692069A07941A6B42F008022A
:101EF0001A631B6B03F00803224607933C21079BE0
:101F000004F01EFAA0480122022104F019FA224628
:101F10009D48042104F014FA22469C484FF4405195
:101F200004F00EFA01263C23CDE90D3694480F94B7
:101F300003230DA90227109304F018F992480DA964
:101F4000CDE90D76CDE90F4404F010F904238E4855
:101F50000DA9CDE90D36CDE90F4704F007F94FF48F
:101F600040538A480DA9CDE90D36CDE90F4704F05D
:101F7000FDF80DA90C2386480F96CDE90D3404F029
:101F8000F5F88448844B036003F0E6FFDFF82CC2C9
:101F9000824B2C62C5E900C328464FF48043C5E953
:101FA0000434C5E90244C5E9064404F0D7FB102116
:101FB000284604F01BFE2146284604F036FE784DE4
:101FC000DFF8FCE1AC624FF48273C5E900E34FF443
:101FD00000781823C5E9068328460A23C5E9024488
:101FE000C5E90444C5E90844EB6205F0F5FC8F231C
:101FF0002246394664488DF824308DF8344004F088
:102000009FF932464FF47A7309A9284605F040FD3E
:102010004FF47A7332460DA9284605F0E5FE3246A4
:10202000394659485F4D04F08BF99DF83430D32B75
:1020300004BF5D4B1E705D4B0126C5E900364FF0B5
:10204000100940230024C5E904934FF4C073C5E987
:1020500006344FF40063C5E908344FF400530227F7
:102060004FF0040AAB624FF0030B07230DA928467B
:10207000CDE90D73CDE90FA34FF00808C5E9024A79
:10208000CDE911B7139705F08BFB4FF6FF7209A945
:102090002846CDE90A86089409960C9405F0A0FB21
:1020A000304603F0C1FC4FF6FF7209A92846CDE97E
:1020B0000978CDE90B6405F093FB4FF6FF7209A98F
:1020C0002846CDE909B8CDE90BA405F089FB4FF40A
:1020D0000C730893089B0C934FF6FF7209A92846CE
:1020E000CDE909A80B9605F07BFB40F26A51284622
:1020F00005F094FB342221460DEB020022F007FD8F
:102100002B4D2C4B2C61C5E900340923C5E905365C
:102110001D23C5E9073B40F20D1240F24313C5E908
:10212000092340F2171140F247132846C5E90B1363
:10213000C5E90244AC8685F8364004F011FEFF2163
:10214000F022CDE912144FF4806005214FF4A07302
:10215000CDE91401CDE90E240DA9CDE9164228469A
:102160002246154D1893CDE910370D94ADF8644013
:102170008DF8664004F0BFFE24E000BF0038024046
:1021800000100240C828002000080240000C024055
:10219000001802405C29002000300240A0860100A7
:1021A000C82700209427002084270020400100A099
:1021B0002028002000680140EC260020005C004040
:1021C00000500140294B2B601B6898472B68284D15
:1021D000DB689847274B2846C5E90034C5E90274F7
:1021E000C5E90A47C5E90C4403F0C6FE3146284656
:1021F00003F078FF204DFEF761FDFEF75EFDFFF76F
:10220000CBFD1E484FF48033C0E900531C4B836262
:1022100084600461047680F82040C462C460C661B2
:1022200080F83040466103F013FC06F025FA154AA9
:102230003146484606F03BFB134B144A18602146D2
:10224000134806F045FA134B134A18602146134809
:1022500006F03EFA124B134A18602146124806F067
:1022600037FA124B186006F019FAFEE71400002046
:102270001C29002000B00240002001403C27002023
:102280000100000F6069020838270020C0690208B9
:10229000D9220008902700209C690208A523000885
:1022A0008C27002078690208CB0C000888270020C2
:1022B00006490A6808B950637047054BB3FBF0F054
:1022C000431ED362CB604008F5E700BFF026002034
:1022D00040420F00000000002DE9F84F0FF2740992
:1022E000D9E90089DFF874B0DFF874A0184D002434
:1022F0005AF8046B55F8040BFFF7DAFF3046FEF787
:1023000043FA11A3D3E9002306460F46FDF7C0FFA9
:10231000FEF7A4FA06F020FADBF8003000225A6338
:10232000304642464B463946FDF7B2FFFEF796FA75
:10233000013406F011FA302CDAD14FF47A7006F03D
:102340000BFAD1E7AFF30080666666666666E63F25
:10235000A0680208333333333333D33FF0260020F1
:10236000E067020830B50E4C85B000236946039340
:10237000009001232046CDE9013303F0FFFC204605
:1023800003F00CFC0A21204603F0A1FC204603F0D8
:10239000F1FC0546204603F07FFC284605B030BD21
:1023A0003C27002013B51C4C0D20FFF7DBFFB0F5D8
:1023B000FA6F24D340F6B83398422BD800238DF817
:1023C00006300520FFF7CEFFB0F57A7F0AD340F63E
:1023D000B833984211D800238DF80730142006F046
:1023E000BBF9E1E744238DF80730002320681A4643
:1023F0000DF1070106F096FAF0E75523F3E74C23B9
:102400008DF80630002320681A460DF1060106F00B
:1024100089FAD6E75223F3E7382700207047704740
:102420007FB5094B8DF817201B6802930DF1170239
:102430000123009201930A460146044804F036FA4B
:1024400007B05DF804FB00BF10000020C828002082
:102450007FB500238DF81730084B1B6802930A469E
:1024600001230DF11701009101930146044804F086
:10247000ADFA9DF8170007B05DF804FB10000020CE
:10248000C82800201FB5084C24680092CDE901340B
:102490000A4601230146054804F098FA003818BF9F
:1024A000012004B010BD00BF10000020C82800208B
:1024B00003F0BABA10B5064C00222046042103F0FE
:1024C0003FFF20460122BDE81040042103F038BF41
:1024D0000008024038B50B4D044601220A484FF46B
:1024E000005103F02DFF00220421284603F028FFAD
:1024F0002046FFF7F1FB28460122BDE838400421C1
:1025000003F01EBF00080240000C024038B50B4D1E
:10251000044600220A484FF4005103F011FF002244
:102520000421284603F00CFF2046FFF7D5FB284680
:102530000122BDE83840042103F002BF0008024038
:10254000000C0240F7B5144E144F05460C463046B9
:102550000022042103F0F4FE00224FF4005138461B
:1025600003F0EEFE2846FFF7B7FB0D4B0D481B6846
:10257000224601A905F038FC384601224FF40051EB
:10258000019C03F0DDFE30460122042103F0D8FE59
:10259000204603B0F0BD00BF00080240000C02401E
:1025A0000C000020C827002003F03EBA0268034B4D
:1025B0009A4201D103F026BA704700BF00100040D4
:1025C0007047000082B00E4B00220092596C41F41B
:1025D00080415964596C01F4804100910099019245
:1025E000196C41F0805119641B6C03F08053019306
:1025F000019B0F216FF0010002B003F06DBC00BF22
:10260000003802400268094B9A4282B00BD1002385
:102610000193074B1A6B42F480521A631B6B03F44D
:1026200080530193019B02B0704700BF003002400D
:102630000038024010B5044688B01422002103A8D7
:1026400022F065FA22681A4B9A422ED103F58C3398
:1026500000220092596C174841F480715964596CFA
:1026600001F48071009100990192196B41F004010D
:102670001963196B01F004010191019902921A6B1F
:1026800042F001021A631B6B03F001030293029BE9
:102690000822032303A9CDE9032303F067FD2023C8
:1026A0000548039303A903F061FD08B010BD00BF06
:1026B00000200140000802400000024007B50F4B17
:1026C00002689A4216D10022A3F5F0430192196BD9
:1026D00041F4000119631B6B03F40003019305210E
:1026E0005A20019B03F0F8FB5A2003B05DF804EB7D
:1026F00003F024BC03B05DF804FB00BF00B002404F
:102700002DE9F043044689B01422002103A822F0E9
:10271000FEF92268244B9A4243D1244C24480025D8
:102720000095236B43F004032363236B03F004033E
:102730000093009B0195236B43F001032363236BFC
:1027400003F001030193019B4FF012094FF4007352
:102750004FF001080327042603A9CDE90339CDE989
:102760000587079603F002FD4FF480731148079622
:1027700003A9CDE90339CDE9058703F0F7FC0295FC
:10278000236C43F400032364236C03F400030293DB
:10279000029B236A43F400032362236A23F40003A9
:1027A000236209B0BDE8F083005C004000380240BD
:1027B0000008024000000240F0B599B0044614221F
:1027C000002107A822F0A3F930220DEB020000211E
:1027D00022F09DF922685E4B9A4240F0B7800823B0
:1027E0000C93C0231093042312930CA84FF40033CE
:1027F000159304F0A9FE08B1FFF7E2FE554B5648C9
:10280000002400945A6C42F080625A645A6C02F0C0
:1028100080620092009A01941A6B42F020021A63BF
:102820001A6B02F020020192019A02941A6B42F094
:1028300001021A631A6B02F001020292029A0394D7
:102840001A6B42F002021A631A6B02F00202039240
:10285000039A04941A6B42F040021A631A6B02F056
:1028600040020492049A05941A6B42F004021A631F
:102870001A6B02F004020592059A06941A6B42F054
:1028800008021A631B6B03F00803069302250E2649
:10289000069B0B964FF4806307A9CDE90735CDE978
:1028A000094503F063FC41F658032C480B9607A931
:1028B000CDE907350927CDE9094503F057FC032386
:1028C00027480B9707A9CDE90735CDE9094503F05E
:1028D0004DFC4FF4706322480B9607A9CDE90735EC
:1028E000CDE9094503F042FC4FF40C631D480B96FB
:1028F00007A9CDE90735CDE9094503F037FCC02329
:1029000019480B9607A9CDE90735CDE9094503F02C
:102910002DFC082315480B9607A9CDE90735CDE90D
:10292000094503F023FC4FF4A0530E480B9707A969
:10293000CDE90735CDE9094503F018FC58202246BA
:10294000052103F0C9FA582003F0F8FA19B0F0BDD8
:1029500000680140003802400014024000000240BC
:10296000000402400018024000080240000C02402F
:1029700010B5044688B01422002103A822F0C7F83D
:102980002268144B9A4223D103F568430021019138
:102990005A6C114842F480125A645A6C02F4801244
:1029A0000192019A02911A6B42F020021A631B6B8A
:1029B00003F020030293029B4FF460720223032171
:1029C000CDE903230523CDE9061303A903F0CEFBCC
:1029D00008B010BD00500140001402402DE9F04144
:1029E00086B0002303932B4B1C68002C4FD14FF073
:1029F0000108C3F80080284B00949A6B274842EAEC
:102A000008029A639B6B03EA0803009302270326DC
:102A10000C25009B01A94FF63F03CDE90137CDE915
:102A2000046503F0A3FB1E48059501A9CDE90187C4
:102A3000CDE9034603F09AFB48F233131948059594
:102A400001A9CDE90137CDE9034603F08FFB4FF62D
:102A500083731548059501A9CDE90137CDE90346F2
:102A600003F084FB4CF203731048059501A9CDE9EE
:102A70000137CDE9034603F079FB60230C48059547
:102A800001A9CDE90137CDE9034603F06FFB06B09C
:102A9000BDE8F081642900200038024000140240A3
:102AA000000802400018024000100240000C0240E2
:102AB0000004024070B588B000230293204B1A6CCA
:102AC00042F010021A641B6C03F0100302930546D7
:102AD00001A903A8029B04F019FD069B4BBB04F05F
:102AE00005FD184E184B336040F2E733F360174B87
:102AF000B0FBF3F3013B7360304600233361B360F6
:102B0000B36105F0C3FB044680B9304605F092FA84
:102B1000044658B9362003F011FA0F2D0DD822467D
:102B20002946362003F0D8F9094B1D60204608B02D
:102B300070BD04F0DBFC4000D3E70124F6E700BFE2
:102B400000380240682900200010004040420F0079
:102B50007C0000207047FEE7FEE7FEE7FEE77047D7
:102B6000014805F0A6BA00BF68290020014804F01A
:102B700065B900BF20280020014803F029BA00BF32
:102B80001C2900200120704708B522F01FF81623E9
:102B900003604FF0FF3008BD08B522F017F8162388
:102BA0000360FEE770B50D4614460E46731B9C424B
:102BB00001DC204670BDAFF3008006F8010BF5E79D
:102BC00070B50D4614460E46731B9C4201DC204630
:102BD00070BD16F8010BAFF30080F5E74FF0FF3042
:102BE00070474FF400534B6000207047012070473E
:102BF000002070470A4A116808B5034609B9094917
:102C000011601068694603448B4206D921F0DEFF4B
:102C10000C2303604FF0FF3008BD1360FCE700BFDA
:102C2000B029002038450120704710B50421044622
:102C300020F047FE204610BD08B5032913D8DFE871
:102C400001F002060A0E01F067FB006808BD01F002
:102C500063FB4068FAE701F05FFB8068F6E701F08C
:102C60005BFBC068F2E70020F0E700000048704717
:102C7000F86902081420704713B5002451B10368A5
:102C800001948DF8034001AA9C680DF10303A0474D
:102C900002B010BD0846FBE7C0897047008A704744
:102CA000C088704780887047807A00F07F00704746
:102CB000807AC00970470020704700009FED010A2C
:102CC000704700BF00000000704710B5082104469F
:102CD00020F0F7FD204610BD7047704700F598734F
:102CE0000868496803C37047704770474160704780
:102CF00070477047064BC0F84C310023C0F8503184
:102D000000F5A273C0F84801C0F84031704700BF19
:102D10008D2E00080123037270477047704710B46E
:102D2000C26841685410034601EB6200D20748BFF5
:102D30000A599B685DF8044B48BFD35818470346AF
:102D4000406830B19A681AB9D86800F0010070473D
:102D50000120704710B50C21044620F0B2FD20463A
:102D600010BD10B51021044620F0ABFD204610BD6B
:102D700010B54FF4AE71044620F0A3FD204610BDFF
:102D800010B54021044620F09CFD204610BD10B532
:102D90000EF092F80368BDE81040DB6B18470000A6
:102DA000054B1B7801462BB1406818B103680C3104
:102DB0005B6E1847704700BFF3370120037A70B588
:102DC0000546BBB940680368DB69984704463CB9CF
:102DD0006868036805F10C011B6EBDE87040184778
:102DE000A1886B8FC91A236820461B6B09B29847CC
:102DF000A469ECE770BD10B50446D0F8400158B1A5
:102E00000368DB68984738B1D4F8400103689B68D1
:102E100098470023C4F8403110BD70B5044690F8BF
:102E2000390094F838300130C0B2984284F8390043
:102E300005D901232372002384F8393070BDB4F919
:102E40003A20002110F08FF9C30706D500284FF66D
:102E5000FF73C8BF0123184400B2238AC01AA08799
:102E600060680368DB69984705462DB960680368A8
:102E7000BDE870405B691847A988A38F19442B6887
:102E800028461B6B09B29847AD69EEE72DE9F14F73
:102E9000D0E9556A0746B06803681B6A9847B0F5E1
:102EA000B27F05D2444B454AA321454821F028FC76
:102EB000706803681B6A98470F2803D8414B3F4A44
:102EC000A421F2E7F06803681B6A98470B2803D82F
:102ED0003D4B3A4AA521E8E70DF0EEFFDFF8F09010
:102EE00004300EF00EF8D9F8000010B10368DB686A
:102EF0009847D9F8000010B103681B689847DFF8BD
:102F0000D480D8F8000010B103685B699847D7F8FF
:102F10003C0110B103685B689847D8F8000010B115
:102F200003681B689847D7F83C0110B103689B6899
:102F30009847F068036800215B6A98474FF0000BE0
:102F4000224BC0F804B0044680F808B00360B068B3
:102F5000036859465B6A9847054601F01BFE706896
:102F6000036859465B6A98472946064601F0F0FD1A
:102F7000331DC7F83C61C9F80040C8F80050CAF8D2
:102F800000302B68C6F808A02846DB68EE63984737
:102F9000336830461B6898472146284610F0DDF814
:102FA000236820461B69984723685B69204601B067
:102FB000BDE8F04F184700BFA55C0208335D02086A
:102FC000055E02084C5E0208EF5E02080C6C020807
:102FD000483801204C380120044B1B6893F85C20D2
:102FE0000AB1186D00B99868704700BF0038012019
:102FF000F8B5174604460E460EF024F8124B1C6036
:10300000124B2360124B0025C4E95135114BC4E922
:1030100053551868036801219B68C4E94F55C4E9FA
:1030200055769847284601F02BF9FFF7D5FF18F0A1
:1030300014FDFFF7D1FF18F08BFDFFF7CDFF18F05F
:1030400093FD2046F8BD00BF50380120B86B020840
:10305000A06B020800380120064BC0F84C31002359
:10306000C0F8503100F5A273C0F84801C0F84031F3
:10307000704700BF8D2E0008064BC0F84C3100236E
:10308000C0F8503100F5A273C0F84801C0F84031D3
:10309000704700BF69320008064BC0F84C3100236E
:1030A000C0F8503100F5A273C0F84801C0F84031B3
:1030B000704700BF2D3100082DE9F041054600267C
:1030C000164B4660067245F80C3B044628460F46F0
:1030D0000AF036FB124B84F838701B7884F839609C
:1030E000A68723B9012323722046BDE8F0810D4B4A
:1030F0000D4FB3F90080E368B7F900109B6B2661B0
:1031000028469847E3684146DB6B2846984728469F
:103110000AF092FA3B885B426387E5E7306C02086D
:10312000F3370120FA370120FC3701202DE9F04761
:10313000D0E9556A0746B06803681B6A984741F2B0
:10314000C713984205D8414B414AA321414821F079
:10315000D7FA706803681B6A98470F2803D83E4B5C
:103160003B4AA421F2E7F06803681B6A98473F28AE
:1031700003D83A4B364AA521E8E70DF09DFEDFF86B
:10318000E09004300DF0BDFED9F8000010B10368E6
:10319000DB689847D9F8000010B103681B689847AE
:1031A000DFF8C080D8F8000010B103685B69984769
:1031B000D7F83C0110B103685B689847D8F8000065
:1031C00010B103681B689847D7F83C0110B1036839
:1031D0009B689847F068036800215B6A9847142150
:1031E0000446FFF769FFB068036800215B6A9847EF
:1031F000054601F03FFD7068036800215B6A98474F
:103200002946064601F0E8FC331DC7F83C61C9F8C1
:103210000040C8F80050CAF800302B68C6F808A073
:103220002846DB68EE639847336830461B6898474A
:10323000214628460FF091FF236820461B699847D6
:10324000236820465B69BDE8F0471847A55C020883
:10325000925F0208055E02084C5E0208EF5E0208FB
:10326000483801204C3801202DE9F047D0E9556A53
:103270000746B06803681B6A9847B0F5376F05D2F8
:10328000414B424AA321424821F03AFA7068036850
:103290001B6A98470F2803D83E4B3C4AA421F2E70B
:1032A000F06803681B6A98473F2803D83A4B374AAF
:1032B000A521E8E70DF000FEDFF8E09004300DF006
:1032C00020FED9F8000010B10368DB689847D9F8F0
:1032D000000010B103681B689847DFF8C480D8F875
:1032E000000010B103685B699847D7F83C0110B142
:1032F00003685B689847D8F8000010B103681B6842
:103300009847D7F83C0110B103689B689847F0686C
:10331000036800215B6A984714210446FFF7CCFE3E
:10332000B068036800215B6A9847054601F0A6F87B
:103330007068036800215B6A98472946064601F0D9
:103340005FF8331DC7F83C61C9F80040C8F8005069
:10335000CAF800302B68C6F808A02846DB68EE6380
:103360009847336830461B689847214628460FF037
:10337000F4FE236820461B699847236820465B6952
:10338000BDE8F047184700BFA55C02087760020857
:10339000055E02084C5E0208EF5E02084838012014
:1033A0004C380120406A7047806A704770478A88AD
:1033B0000B8810B5D20A4C88C1699BB251F8220023
:1033C00043EA0443184410BD10B50446BAB1107B5B
:1033D00068B1537BD27A1B0203F4E0631A43236A79
:1033E00003EB82031A888A4202D193F9020010BDCE
:1033F00005D8013880B204330028F3D1F7E7002064
:10340000F5E710B52C21044620F05BFA204610BDEC
:1034100030B58BB00446BDF860500895BDF85C50DF
:1034200007959DF8505006959DF84C5005959DF8D0
:10343000485004959DF8445003959DF840500295DE
:103440009DF83C500195BDF8385000950FF0F6FA04
:10345000064B2360159BE361169B2362199B6362F5
:103460001A9BA36220460BB030BD00BF546C02080B
:103470007047704770477047704730B5036885B034
:103480006D460181D3F884300146044628469847AA
:1034900095E807003C3484E8070005B030BD30B53E
:1034A000036885B06D464181D3F8843001460446F7
:1034B0002846984795E807003C3484E8070005B0A3
:1034C00030BD0022028042808280C280704780F836
:1034D0003610704770B5036804461B6B1546984755
:1034E0002368294620465B6EBDE8704018470020DF
:1034F0007047806C704770477047704710B54C211B
:10350000044620F0DEF9204610BD10B54FF42071BE
:10351000044620F0D6F9204610BD08B5FEF7E6FABD
:1035200008BD0000036870B55E6B124B1B68044653
:103530008DB22BB9104B114A6C21114821F0E0F8E3
:103540001049828D0988914203D80F4B0B4A6D2197
:10355000F3E713F812200D4B1B6853F822000368A1
:103560001B6B9847291A3346204609B2BDE87040C4
:10357000184700BF603801205C6102089E610208A4
:10358000D96102085438012020620208583801200D
:1035900000224FF0FF31C0E900218260704770B512
:1035A000036804461B6B1546984723682946204646
:1035B0005B6BBDE8704018470022C0E90122C0E9FA
:1035C0000322C0E90522C0E907224FF480728284F9
:1035D000014A0260704700BFBC6C020838B5262261
:1035E00004460D46002121F092FA2046FFF7E4FF41
:1035F000064B23602B88E384FF23204684F8283081
:1036000029460AF0EEFD204638BD00BFF8770208D3
:1036100010B526220446002121F079FA2046FFF752
:10362000CBFF0A4B23600A4BA3624FF6FF73A385BF
:103630004FF47F020023C4E90C3223874FF0FF329E
:10364000C4E91023E363204610BD00BF00770208E1
:10365000906B02082DE9F04F04468DB027460025F7
:103660000FF0E0FBBB4BE56347F8403B26222946C1
:10367000384621F04CFA3846FFF79EFFB64B2364DC
:10368000FF2384F8663004F16C034FF6FF7604F1F3
:10369000980A18460AA9A56604F1C4090393ADF86F
:1036A0002860FFF79BFF0AA95046ADF82860FFF796
:1036B00095FF0AA94846ADF82860FFF78FFF04F18F
:1036C000F0030AA918460493ADF82860FFF786FFB7
:1036D00004F58E730AA9184604F5A4780593ADF88D
:1036E0002860FFF77BFF4046FFF792FF9B4BC4F833
:1036F000483104F5CA731846C4F890510193FFF796
:1037000087FF04F5EE73184604F5097B0293FFF773
:103710007FFF5846FFF77CFF2A4638462946FFF7C9
:103720003EFF3846F021FEF72BF938464FF4A071E2
:10373000FEF728F9261D4FF07F43A3663946304631
:1037400007F08FF82A4603982946FFF728FF4FF025
:1037500007030398ADF828300AA90AF042FD03993F
:10376000304607F07EF803225046D021FFF717FFBE
:10377000112750460AA9ADF828700AF032FD5146CB
:10378000304607F06EF8F82248461E21FFF707FF83
:10379000132348460AA9ADF828300AF022FD49460D
:1037A000304607F05EF8032204989021FFF7F7FEF9
:1037B0000498ADF828700AA90AF013FD0499304660
:1037C00007F04FF803220598B021FFF7E8FE0598AF
:1037D000ADF828700AA90AF004FD0599304607F0F3
:1037E00040F8032229464046FFF7D9FE5C4BC4F857
:1037F0007831D4F84831A4F87C510DF11809D3F888
:10380000843041464846984799E8070004F5C2735A
:1038100083E80700534B1B6804F51B7A2BB9524B06
:10382000524A6021524820F06BFF524B1B88082BF4
:1038300003D8514B4D4A6121F4E7504B08211868D9
:1038400000F05AFD4E4A03460A21504610F02BFF65
:10385000C4F890A140460AF01FFBDFF828A1CDF87C
:1038600028A00B230AA94046ADF82C300AF034FBFF
:103870004146304606F0F5FFDFF80C8101988522BD
:103880004A21FFF78CFE0199C4F8C4814846A4F888
:10389000C8510AF04DF899E8070004F5E87383E889
:1038A00007000A230198ADF82C300AA9CDF828A00A
:1038B0000AF012FB019984F8B951304606F0D1FFA5
:1038C000029896223946FFF76AFE0299C4F80C82E4
:1038D0004846A4F810520AF02BF899E8070004F5BE
:1038E000067383E8070009230298ADF82C300AA973
:1038F000CDF828A00AF0F0FA029984F80152304677
:1039000006F0AFFF962258463A21FFF748FE594687
:103910004846C4F85482A4F858520AF009F899E8C5
:10392000070004F5187383E807004FF007030AA99E
:103930005846ADF82C30CDF828A00AF0CDFA304624
:1039400084F84952594606F08CFF20460DB0BDE878
:10395000F08F00BFB46D020890770208246D020852
:103960000000FFFF603801205C6102085E6202080F
:10397000D961020854380120206202085C38012015
:10398000A9620208906B020802F6FAFF70477047BE
:10399000704730B4C26844685510034604EB6200B7
:1039A000D20748BF62599B6830BC48BFD3581847FC
:1039B0000346406830B19A681AB9D86800F001002F
:1039C00070470120704710B5102104461FF079FFA1
:1039D000204610BD10B54FF4B27104461FF071FFC0
:1039E000204610BD38B500F58673994204460D4651
:1039F00003D10DF061FAFFF74FFBC434A54205D1A6
:103A00000DF05AFABDE83840FFF736BB38BD00006C
:103A1000F8B5194B018F1B888B4206462AD9174BE4
:103A20001B682BB9164B174A17486C2120F068FE0B
:103A300013F81120154B1B6853F82250144B1868CB
:103A400000F05AFC2B6807469B6B284698472B686A
:103A500004469B6C3946284698472B6814FB00F4B3
:103A60005B6A394628469847A4B223181BB2A6F8C9
:103A70004630F8BD0023FAE75438012060380120B1
:103A80005C6102089E610208D96102085838012071
:103A90005C3801202DE9F74F04460FF0C3F95A4B6B
:103AA00023605A4B0025C4E910354FF4807304F1AC
:103AB0006C0AA4F86430FF2384F8663004F1980996
:103AC000C4E91255C4E91455C4E91655E5632566E1
:103AD000A5664FF6FF7601A9504604F1C408ADF87B
:103AE0000460FFF77BFD01A9484604F58677ADF831
:103AF0000460FFF773FD40460AF00AFD38460AF0FD
:103B000007FD434BC4E95534424B04F1400BC4E973
:103B100057352A4629465846FFF741FD5846F021B9
:103B2000FDF72EFF58464FF4A071FDF72BFF261D21
:103B30004FF07F43A3665946304606F092FE2A4670
:103B400029465046FFF72BFD072301A95046ADF843
:103B500004300AF046FB5146304606F082FE26222B
:103B600048461421FFF71BFD092301A94846ADF87B
:103B700004300AF036FB4946304606F072FE4046F5
:103B8000DB222021FFF70BFD062501AA6946DFF89D
:103B90008890ADF80050404604F5AA7AADF804507C
:103BA0000AF0F7F94046A4F8FC50FFF731FF414610
:103BB0003046C4E94099C4F8ECA006F052FE3846FD
:103BC00093222021FFF7EBFC01AA69463846ADF8A5
:103BD0000050ADF804500AF0DCF90123A4F8443198
:103BE0003846FFF715FF4FF0FF333046C4F84891D1
:103BF000C4F84C31C4F834A1394606F032FE2046F0
:103C000003B0BDE8F08F00BF006E02089077020895
:103C1000E86D0208E539000807C1FFFF70477047EB
:103C200010B54FF4277104461FF04BFE204610BD1F
:103C300070B504461D46BDF91060FFF7B0FC23685F
:103C4000294620469B6B9847236831462046DB6B0C
:103C5000BDE87040184700002DE9F04F04468FB0D2
:103C6000264600250FF0DEF8C14BE56346F8403BE1
:103C700026222946304620F04AFF3046FFF79CFCBA
:103C8000BC4B236404F16C0BFF234FF6FF7704F168
:103C9000980A84F866300CA95846A566ADF83070CD
:103CA000FFF79CFC0CA95046ADF83070FFF796FC6E
:103CB00004F1C4030CA918460593ADF83070FFF762
:103CC0008DFC04F1F0030CA918460693ADF8307092
:103CD000FFF784FC04F58E730CA9184604F5A4794B
:103CE0000793ADF83070FFF779FC4846FFF790FC7A
:103CF000A14FC4F8487104F5CA731846C4F890512E
:103D00000393FFF785FC04F5EE73184604F50A7873
:103D10000493FFF77DFCC4F8DC71C4F824524046DC
:103D2000FFF776FC4FF4A073C4F828722A46304699
:103D3000C4F8705229460093F023FFF779FF271D3E
:103D40004FF07F43A3663146384606F08AFD2A4687
:103D500058462946FFF723FC072358460CA9ADF81F
:103D600030300AF03EFA5946384606F07AFDEE2227
:103D700050462C21FFF713FC132350460CA9ADF835
:103D800030300AF02EFA5146384606F06AFD2A46CF
:103D90000598D021FFF703FC11260598ADF8306097
:103DA0000CA90AF01EFA0599384606F05AFD2A4673
:103DB0000698B021FFF7F3FB0698ADF830600CA928
:103DC0000AF00FFA0699384606F04BFD2A46079886
:103DD0009021FFF7E4FB0798ADF830600CA90AF0DA
:103DE00000FA4FF0180B0799384606F03AFD2A46BC
:103DF0007A2329464846CDF800B0FFF719FF5F4BFC
:103E0000C4F87831D4F84831A4F87C5108AED3F81E
:103E1000843049463046984796E8070004F5C27357
:103E200083E80700564B1B6804F51D7A2BB9554BE8
:103E3000554A6021554820F063FC554B1B88032BE5
:103E400003D8544B504A6121F4E7534B03211868BF
:103E500000F052FA514A03461421504610F023FC58
:103E60000523C4F890A10CA9DFF834A1ADF83430D3
:103E70004846CDF830A00AF02FF84946384606F0FB
:103E8000F0FCDFF82091039870223921FFF787FBBF
:103E90000399C4F8C4913046A4F8C85109F048FD0C
:103EA00096E8070004F5E87383E807000423039805
:103EB000ADF834300CA9CDF830A00AF00DF8039914
:103EC00084F8B951384606F0CCFC0498CDF800B01F
:103ED0009422C3231621FFF7ABFED4F8DC310499FA
:103EE000D3F88430C4F80C923046A4F810529847A6
:103EF00096E8070004F5067383E807000223049898
:103F0000ADF834300CA9CDF830A009F0E5FF0499E4
:103F100084F80152384606F0A4FCB6224046CDF89B
:103F200000B0C3231921FFF783FED4F82832C4F868
:103F3000589241463046D3F88430A4F85C529847F2
:103F400096E8070004F5197383E807000CA94046BA
:103F5000CDF830A0ADF8345009F0BEFF384684F8F3
:103F60004D52414606F07DFC20460FB0BDE8F08F73
:103F7000346E020890770208246D02080000FFFFEB
:103F8000603801205C6102085E620208D9610208A3
:103F900054380120206202085C380120A96202081E
:103FA000906B020802F6FAFF7047000030B5174D1B
:103FB0002C6814F001048FB0BFF35B8F22D1284628
:103FC0001FF081FCF0B1124B124913480A94CDE95D
:103FD0000B433F230993114B0893114B0793012384
:103FE000CDE9054304930423CDE902431423009350
:103FF00027220194FFF70CFA0A4820F09FFB28467D
:104000001FF06DFC04480FB030BD00BFB429002084
:10401000606E020804940208B829002098970208EC
:1040200020980208A93F00087047000030B5164DDF
:104030002C6814F001048FB0BFF35B8F20D12846A9
:104040001FF041FCE0B13F230993104B0893104B44
:10405000104911480A940122CDE906430423CDE911
:1040600003320A230093CDE90B44CDE901440594C2
:10407000FFF7CEF9094820F061FB28461FF02FFC1E
:1040800005480FB030BD00BFE429002000980208A9
:104090002498020828960208E829002029400008F0
:1040A0007047000030B5174D2C6814F001048FB034
:1040B000BFF35B8F22D128461FF005FCF0B13F23F0
:1040C0000993114B0893114B07930123CDE9054345
:1040D00004930423CDE902431423009318230C49CD
:1040E0000C480A941A46CDE90B440194FFF790F965
:1040F000094820F023FB28461FF0F1FB05480FB0CC
:1041000030BD00BF142A0020049802082898020835
:1041100038960208182A0020A140000870470000C5
:1041200030B5164D2C6814F001048FB0BFF35B8FCF
:1041300020D128461FF0C7FBE0B13F230993104B65
:104140000893104B104911480A940122CDE9064307
:104150000423CDE9033228230093CDE90B44CDE9B4
:1041600001440594FFF754F9094820F0E7FA28467E
:104170001FF0B5FB05480FB030BD00BF442A00203A
:104180001C9802082C98020888970208482A0020E8
:104190001D41000800207047002070470EB403B591
:1041A00003AB002153F8042B01930DF0CBFE02B0BA
:1041B0005DF804EB03B070470CB407B504AB53F8DB
:1041C000042B01930DF0BEFE03B05DF804EB02B0CA
:1041D00070470000436C10B5044673B3038F2BB9CE
:1041E000184B194AC521194820F08AFAC38E00EBF2
:1041F00043035B8C0BB30FF0F3FC238F012B03D82D
:10420000134B144ACB21EEE7E28E531C9BB2092BD1
:10421000194688BFA3F10A0104EB410140F63F10A3
:10422000498C814209D10A2B04EB420228BF0023AA
:1042300004EB4303508C588451842046BDE8104061
:104240000FF0D1BBAC620208B562020860630208DD
:10425000AA630208B86302080FF08DBB10B586B0E0
:1042600002AC84E806001A460AAB05930193099B49
:1042700000932146089B0CF094F906B010BD000095
:1042800038B518BB124B13481C681349B4B12268E7
:1042900022440260626822440A60A26814440F4B00
:1042A00000221A8000F038F8054600F033F80C4B75
:1042B0001C600C4B1D600C4B188007E00B4B03601F
:1042C0000B4B0B600B4B1C68002CE8D138BD00BFBA
:1042D000802A0020782A0020742A00207C2A0020CE
:1042E00060380120583801205438012060980208B5
:1042F00030980208B8720208044B1B6853F821007A
:10430000034B1B6803EB4000704700BF742A00207A
:10431000782A00200C20704700487047842A00202B
:1043200010B5FFF7BFFE064C2060FFF7F9FE606096
:10433000FFF77CFEA060FFF739FEE06010BD00BF14
:10434000842A002010B5002404600C6014601C60F6
:1043500010BD704710B54FF4AE7104461FF0B1FAAE
:10436000204610BD10B50446D0F8580100F014F8EE
:104370002046BDE810400CF025BE000010B50446F4
:10438000FEF736FE014B2360204610BDC4720208C2
:104390000022C0E90022704713B5044609480023F3
:1043A00000688DF807301A460DF1070104F0EBFAAA
:1043B00028B920689DF8071003689B68984702B0E9
:1043C00010BD00BF3827002043688B42B8BF416052
:1043D000704740687047704704387047704710B5A1
:1043E000102104461FF06DFA204610BDA0F1040014
:1043F000F5E7C06800F0E8BAA0F10400FFF7F9BFE4
:1044000000228260024A02601C324260C160704732
:104410001873020808B50CF04FFDBDE80840FEF720
:104420001BBE70470E4B70B50546036040F6EC248A
:1044300040F2C456B44205D02B5928191B6898473E
:104440002C3CF7E72B5928191B682C3C9847B4F5EE
:10445000157FF7D12846FFF74FF8284670BD00BFFB
:104460004873020810B50446FFF7DCFF20464FF4FE
:1044700037611FF026FA204610BD0000F7B505464B
:10448000FFF7E8F8104B2B6005F5207405F5BE66C4
:104490004FF6FF77204601A92C34ADF80470FFF7E2
:1044A0009DF8B442F6D105F618364FF6FF77204650
:1044B00001A92C34ADF80470FFF790F8B442F6D19E
:1044C000284603B0F0BD00BF48730208D0F8383B5F
:1044D000013370B5022B4FF000060446C0F8383B9C
:1044E000C0F83C6B00F5CA7522D10122A0F86C2BF4
:1044F0002322C0F8402B0322C0F8442B1422C4F816
:10450000482B04F64C361F4A0A21304610F0CBF8EF
:1045100004F5A470C4F890610DF03CFE012384F80A
:10452000B93128460DF036FE6423C4F8643B28E018
:10453000032B0AD10222A0F86C2B2822C0F8402BB2
:104540000422C0F8442B0F22D9E7042B08D10522FE
:104550002D21A0F86C2BC0F8401BC0F8442BCEE7EF
:10456000CFDD012380F8013200F5EE700DF012FE70
:1045700084F8B96128460DF00DFE4FF49673C4F827
:10458000683B70BD8A6402082DE9F84300240546A3
:1045900000F6143700F53266A0464FF00109D5F851
:1045A000303B57F8040FA342D6BF336880F82590FC
:1045B00083F82580036801345B699847032CA6F1D2
:1045C0000406ECD1BDE8F88330B5DDE90454069863
:1045D000284488420DDD1944A9420ADD079B234483
:1045E000934206DD039BD018A042D4BF00200120D7
:1045F00030BD0020FCE700002DE9F04FD0F8243B4F
:1046000001338DB0C0F8243BD0F82C3B0133C0F807
:104610002C3BD0F8643B002B044609DD013BC0F87D
:10462000643B2BB980F8B93100F5CA700DF0B2FDCA
:10463000D4F8683B002B0BDD013BC4F8683B002B32
:1046400040F0AA81E06B0DB0BDE8F04FFFF7E2BE8D
:10465000D4F8243B0A2293FBF2F102FB113363BB33
:104660002C2204F2A52102FB03F5485D002840F04E
:10467000968105F520762544B4F8CA20B5F88A322B
:10468000B4F9C810D21AB4F9CC3003EBD37301EBF0
:104690006301B5F9883203EBD373A1EB63012644C0
:1046A000304612B209B2FEF77AFF012385F8A5322F
:1046B000D5F8803230465B69984704F55C7725462B
:1046C0004FF0000895F8A532FBB1D5F8803205F51A
:1046D00020765B6930469847B5F88612D5F8803267
:1046E00008395B6B09B230469847D5F880323046BE
:1046F0005B699847B5F98632143306DAD5F880320B
:1047000085F8A5825B69304698472C35AF42D9D1F0
:10471000D4F8283BD4F8602B01339342C4F8283BEB
:1047200051DDD4F82C0BA64ED4F8481B43F23903C4
:1047300006FB003323F000430131C4F82C3BB3FBEC
:10474000F1F001FB103300220F33C4F8282BC4F81A
:10475000603B04F2156113462C2202FB03F5485D11
:10476000002840F0218105F5BE672544B4F86C2B84
:10477000D5F8F035ADF82C2027441B6E0BA9384630
:104780009847D4F82C2BB5F9F83543F2390106FBDC
:104790000211B5F8FA25C3F1F10321F00041C4F884
:1047A0002C1BB1FBF3F0524203FB101112B238463E
:1047B00009B2FEF7F4FE012385F81536D5F8F03579
:1047C00038465B699847D4F8343B002B1BDD7D4AA3
:1047D000013BC4F8343B5343B3F1333F13D894F84F
:1047E000E93004F1C40583F0010384F8E930284678
:1047F0000DF0D0FCD4F8343B2BB9012384F8E93018
:1048000028460DF0C7FC04F5A563079325464FF035
:10481000000995F81536002B00F0B980D5F8F03571
:1048200005F5BE685B6940469847B5F8F635D4F89B
:10483000441B1944D5F8F03509B25B6B40469847E4
:10484000D5F8F03540465B699847B5F9F835B5F9C4
:10485000FA25B5F9F4B5B5F9F6A5043A043B2746AF
:104860000026089209930AF1020A0BF1020B97F84D
:10487000A532002B00F09D800898B7F98832B7F96F
:104880008622B7F9841204900998CDF804B0CDE9D6
:1048900002A0B7F98A0200902046FFF795FE002893
:1048A00000F087802C235E43A31906F5207683F859
:1048B000A592D3F88032A0195B699847D5F8F035F6
:1048C00085F815965B6940469847D4F83C3BD4F888
:1048D000402B01339342C4F83C3B02DB2046FFF7F8
:1048E000F5FDD4F8346BB5F9F605A6BB95F8153689
:1048F0008BB3B5F9FA75B4F9CC30B4F9CA20B4F970
:10490000C8100497B5F9F875CDE90207B5F9F405B3
:104910000190B4F9CE0008380090083B043204310D
:104920002046FFF751FEB0B1D4F8303B013BC4F84C
:10493000303B2046FFF728FED5F8F03585F81566A0
:104940005B6940469847D4F8303B002B7FF77AAE3E
:104950006423C4F8343BB5F9F635B3F5A07F16DD12
:10496000D4F8303B013BC4F8303B2046FFF70CFE47
:10497000D5F8F03585F815965B6940469847D4F828
:10498000303B002B7FF75EAE6423C4F8343B079BBB
:104990002C35AB427FF43DAF0DB0BDE8F08F013355
:1049A000142B7FF460AE88E601331E2B7FF4D5AE66
:1049B00009E70136142E07F12C077FF458AF90E772
:1049C0006D4EC641CDCCCCCC70B500F1C4060D46C1
:1049D000044630460DF0DEFB4C2D07D1B4F9C8304B
:1049E000002B0DDD053BA4F8C83009E0522D0CD199
:1049F000B4F9CC20B4F9C830C2F1F002934212DB12
:104A00003046BDE870400DF0C5BB552D0DD0442D8E
:104A1000F6D1B4F9CE20B4F9CA30C2F5A0729342EF
:104A2000EEDA053306E00533DDE7B4F9CA30002BD2
:104A3000E6DD053BA4F8CA30E2E700002DE9F743C4
:104A40000446FEF75AFD43F23903C4F82C3B022119
:104A5000032300261E2204F64C35C4F8303BC4F86C
:104A6000441B01231921C4F8383BC4F8402BC4F877
:104A7000481BC4F8602B0A212C4AC4F8346B284622
:104A8000C4F8246BC4F83C6BC4F8686B0FF00BFEE1
:104A9000C4F8905104F5A4700DF07CFB04F520756A
:104AA000C4F8646B04F5BE684FF00C092B68284607
:104AB0001B6EADF8049001A9271D984785F8256065
:104AC000294638462C3505F0CCFE4545EED1A4F8F4
:104AD0006C6BC4F8286B4FF0000804F618362B688E
:104AE000B4F86C2B1B6EADF80420284601A998473A
:104AF00085F82580294638462C3505F0B2FEB542AA
:104B0000EDD104F1F003C4F8183B04F58E73C4F83A
:104B10001C3B04F19803C4F8203B20460323C4F84F
:104B2000303B03B0BDE8F043FFF72EBD8A640208B6
:104B30007047704704387047704710B5102104461D
:104B40001EF0BFFE204610BDA0F10400F5E70000F6
:104B500000228260024A026018324260C1607047DF
:104B60007C7302087047000010B5034B03600446D5
:104B7000FEF70DFF204610BDA873020810B50446CD
:104B8000FFF7F2FF20464FF4B2711EF09AFE204666
:104B900010BD000010B50446FEF77CFF014B2360FA
:104BA000204610BDA8730208FEF7F2BE7047043815
:104BB0007047704710B5102104461EF082FE204653
:104BC00010BDA0F10400F5E7C06800F08BB8A0F1BB
:104BD0000400FFF7F9BF000000228260024A026071
:104BE0001C324260C1607047DC7302088068FFF7C6
:104BF000EBBB8068FFF7EDBB08B50CF05DF9BDE8D5
:104C00000840FEF729BA7047134B70B5044603609D
:104C100041F2901540F66846B54217D140F6F806C5
:104C2000635960191B682C3D9847B542F8D140F68E
:104C30000805635960191B682C3D9847B5F5387F06
:104C4000F7D12046FEF7EAFF204670BD6359601990
:104C50001B6898472C3DDFE70C74020810B504462A
:104C6000FFF7D2FF204641F2C8111EF02AFE20466F
:104C700010BD0000F7B50446FEF7EEFF184B2360A9
:104C800004F5437504F634064FF6FF77284601A96C
:104C90002C35ADF80470FEF7A1FCB542F6D104F650
:104CA000241604F694454FF6FF77304601A92C36BA
:104CB000ADF80470FEF792FCB542F6D104F58D56BE
:104CC0001C364FF6FF77284601A92C35ADF8047045
:104CD000FEF784FCAE42F6D1204603B0F0BD00BF23
:104CE0000C74020870B500F198060D460446304673
:104CF0000DF050FA4C2D07D1B4F99C30002B0DDD8E
:104D0000053BA4F89C3009E0522D0CD1B4F9A02049
:104D1000B4F99C30C2F1F002934212DB3046BDE898
:104D200070400DF037BA552D0DD0442DF6D1B4F9A1
:104D3000A220B4F99E30C2F5A0729342EEDA053398
:104D400006E00533DDE7B4F99E30002BE6DD053BD8
:104D5000A4F89E30E2E7000090F8AC3270B504464B
:104D6000ABBB0125D0F8A412C0F8B83280F8AC5221
:104D7000C06BFFF73BFFE06BFFF73BFF04F52F76BF
:104D80000346134A142130460FF08DFCC4F8246208
:104D900004F5EE7004F5397684F801520DF0FAF955
:104DA000D4F8A4320A4A142130460FF07CFC04F5F2
:104DB0000A70C4F8706284F84D520DF0EBF984F873
:104DC000B95104F5CA70BDE870400DF0E3B970BD8B
:104DD0008A6402082DE9F84300F58D5700F58E55D9
:104DE0000024064618370435A0464FF00109D6F8CE
:104DF000A83257F8040FA342D6BF2B6880F825903D
:104E000083F82580036801345B699847032CA5F17A
:104E10000405ECD1BDE8F883D0F8A83210B5013B09
:104E20000446C0F8A832FFF7D5FFD4F8A832002B0B
:104E300004DC2046BDE81040FFF78EBF3C23C4F8D9
:104E4000B43210BD30B504460A4D1046D4F89C2249
:104E500043F2390305FB023323F000438142C4F8D7
:104E60009C3206D0401A0130B3FBF0F200FB123343
:104E7000581830BD6D4EC64130B5DDE90454069872
:104E8000284488420DDD1944A9420ADD079B2344CA
:104E9000934206DD039BD018A042D4BF002001201E
:104EA00030BD0020FCE700002DE9F04F90F8AC3257
:104EB0008BB004466BB1D0F8B8320133B42BC0F8D4
:104EC000B83240F3E981C06B0BB0BDE8F04FFFF79B
:104ED00093BED0F8A0320133C0F8A032D0F89C3293
:104EE0000133C0F89C32D0F8B432002B1BDDBF4A2E
:104EF000013BC0F8B4325343B3F1333F13D890F8B9
:104F0000BD3000F1980583F0010380F8BD302846DC
:104F10000DF040F9D4F8B4322BB9012384F8BD3038
:104F200028460DF037F9D4F8A0320F2293FBF2F2A5
:104F3000C2EB02129B1A25D12C2204F6B94102FBC6
:104F400003F5485D002840F0AA81B4F9A030B4F818
:104F50009C10B4F89E2003EBD37305F694460539F4
:104F600001EB630126440A3A3046254412B209B2E5
:104F7000FEF715FB012385F8B93CD5F8943C304683
:104F80005B69984704F5A5632646079325464FF0CD
:104F9000000895F8B93CFBB1D5F8943C05F6944768
:104FA0005B6938469847B5F89A1CD5F8943C08399F
:104FB0005B6B09B238469847D5F8943C38465B6934
:104FC0009847B5F99A3C143306DAD5F8943C85F83D
:104FD000B98C5B6938469847079B2C359D42D8D1E0
:104FE000D4F8B03201333C2B04F6340740F3678128
:104FF0000023C4F8B03204F54375B946984695F8D5
:1050000025A0BAF1000F2CD1962214212046FFF7DB
:1050100019FF6422834651462046FFF713FF3128CB
:105020000FFA8BF200F340812989494209B22846E0
:10503000FEF7B5FA012251462046FFF703FF013083
:105040000123C9F8000085F825302B6828465B69E4
:1050500008F1010898471423B8F1020FC9F8783015
:1050600004DC2C35BD4209F10409C8D104F649130A
:1050700025464FF02C0B089395F83133002B00F0A8
:10508000A680D5F80C3305F5437A5B6950469847FE
:10509000B5F8103339681944D5F80C3309B21B6BD5
:1050A00050469847D5F80C3350465B699847BB6F1C
:1050B000002B40F30781013BBB67A1464FF000087E
:1050C00099F8B93C002B00F03081B5F91603B9F915
:1050D0009C3CB9F99A2CB9F9981C0490B5F91403C1
:1050E0000390B5F912030290B5F910030190B9F9D4
:1050F0009E0C00902046FFF7BFFE002800F01581AF
:105100000BFB08F804EB08034FF0000983F8B99C87
:10511000D3F8943C08F6944804EB08005B69984780
:10512000D5F80C3385F831935B6950469847D4F82D
:10513000A4322F4A013304F52F78C4F8A432142185
:1051400040460FF0B0FAC4F8908104F5A4700DF059
:1051500021F895F831335BB3D4F8B482B8F1000F7D
:1051600026D1B5F91603B4F9A030B4F99E20B4F9EC
:105170009C100490B5F914030390B5F91203029042
:10518000B5F910030190B4F9A20008380090083B6B
:10519000043204312046FFF76FFE48B12046FFF786
:1051A0003BFED5F80C3385F831835B695046984750
:1051B000B5F8103332339BB2B3F5AA7F07D9002379
:1051C00085F83133D5F80C3350465B699847079B17
:1051D0002C359D4207F104077FF44EAF04F55C784F
:1051E0004FF000094FF00A0A04E000BFCDCCCCCC50
:1051F0008A64020896F84939002B4AD0D6F8243937
:1052000006F624155B6928469847B6F82A19D6F899
:10521000243902315B6B09B228469847D6F8243905
:1052200028465B699847D4F8B47237BBB4F9A2300A
:10523000B6F92A29B6F92819083B0493B4F9A03025
:10524000083B0393B4F99E3004330293B4F99C30C5
:105250000433CDE900A320460A23FFF70DFE60B119
:10526000D6F8243986F849795B692846984720465C
:10527000FFF7B0FD2046FFF7CFFDB6F92A39B3F5A9
:10528000A07F06DDD6F8243986F849995B6928465F
:1052900098472C36B045ADD10BB0BDE8F08F013347
:1052A0001E2B7FF44CAE6DE6F0212846FEF777F911
:1052B000012251462046FFF7C5FDC043C0E6C4F8B1
:1052C000B032D3E60023089A0BFB03F812F80890DB
:1052D000B9F1000F25D1B5F81633B5F81223B5F89A
:1052E00010131A44B5F9143303EBD37301EB6301C4
:1052F00008F62410204412B209B2A0440990FEF727
:105300004EF9012388F84939D8F8243909985B699E
:1053100098473C2249462046FFF794FD3C30B86749
:10532000CBE60133142BCED1C7E608F10108B8F162
:105330001E0F09F12C097FF4C3AE0AE72DE9F74FE0
:105340000446FEF76CFC43F23903002504F52F7682
:10535000C4F89C320323C4E9A953444A84F8AC52EC
:1053600014213046C4E9AC55C4F8A0520FF09BF9A3
:10537000C4F8906104F5A4700CF00CFF04F5CA7039
:1053800084F8B9510CF006FF04F50A7084F84D5208
:105390000CF000FF84F8015204F5EE700CF0FAFEF8
:1053A000DFF8CCB004F5437604F503694FF0060A44
:1053B00033681A6EB5FBFAF30AFB135330463BF819
:1053C0001330ADF8043001A94FF00008271D9047B5
:1053D000013586F825803146384605F042FA1E2D03
:1053E00049F8048F06F12C06E2D104F6241504F6E0
:1053F00094464FF00F092B6828461B6EADF80490B9
:1054000001A9984785F82580294638462C3505F0AE
:1054100028FAB542EFD104F58D561C364FF00C0931
:105420004FF000082B6828461B6EADF8049001A9C8
:10543000984785F82580294638462C3505F011FA1D
:10544000B542EFD104F5805304F1C402C3F8BC2186
:1054500004F1F002C3F8C021204604F58E72C3F8AF
:10546000C42103B0BDE8F04FFFF7B4BCB36202083B
:1054700038740208F02070474FF4A070704729205C
:10548000FDF744B82820FDF741B808B5FDF712F83C
:10549000CA20FDF73BF8C320FDF71CF80820FDF7F4
:1054A00019F85020FDF716F8CF20FDF72FF800204F
:1054B000FDF710F8C120FDF70DF83020FDF70AF8D0
:1054C000ED20FDF723F86420FDF704F80320FDF735
:1054D00001F81220FCF7FEFF8120FCF7FBFFE8201B
:1054E000FDF714F88520FCF7F5FF0020FCF7F2FF2C
:1054F0007820FCF7EFFFCB20FDF708F83920FCF708
:10550000E9FF2C20FCF7E6FF0020FCF7E3FF342046
:10551000FCF7E0FF0220FCF7DDFFF720FCF7F6FFC9
:105520002020FCF7D7FFEA20FCF7F0FF0020FCF773
:10553000D1FF0020FCF7CEFFB120FCF7E7FF0020F1
:10554000FCF7C8FF1B20FCF7C5FFB620FCF7DEFF09
:105550000A20FCF7BFFFA220FCF7BCFFC020FCF72D
:10556000D5FF1020FCF7B6FFC120FCF7CFFF1020BD
:10557000FCF7B0FFC520FCF7C9FF4520FCF7AAFFE8
:105580001520FCF7A7FFC720FCF7C0FF9020FCF711
:10559000A1FF3620FCF7BAFFC820FCF79BFFF220E2
:1055A000FCF7B4FF0020FCF795FFB020FCF7AEFF3E
:1055B000C220FCF78FFFB620FCF7A8FF0A20FCF7FB
:1055C00089FFA720FCF786FF2720FCF783FF042034
:1055D000FCF780FF2A20FCF799FF0020FCF77AFFF8
:1055E0000020FCF777FF0020FCF774FFEF20FCF7AA
:1055F00071FF2B20FCF78AFF0020FCF76BFF0020D7
:10560000FCF768FF0120FCF765FF3F20FCF762FF15
:10561000F620FCF77BFF0120FCF75CFF0020FCF785
:1056200059FF0620FCF756FF2C20FCF76FFFC8201F
:10563000FCF7BAFF2620FCF769FF0120FCF74AFFC0
:10564000E020FCF763FF0F20FCF744FF2920FCF764
:1056500041FF2420FCF73EFF0C20FCF73BFF0E200F
:10566000FCF738FF0920FCF735FF4E20FCF732FF2E
:105670007820FCF72FFF3C20FCF72CFF0920FCF7DB
:1056800029FF1320FCF726FF0520FCF723FF172036
:10569000FCF720FF1120FCF71DFF0020FCF71AFF8C
:1056A000E120FCF733FF0020FCF714FF1620FCF785
:1056B00011FF1B20FCF70EFF0420FCF70BFF11204D
:1056C000FCF708FF0720FCF705FF3120FCF702FF7D
:1056D0003320FCF7FFFE4220FCF7FCFE0520FCF720
:1056E000F9FE0C20FCF7F6FE0A20FCF7F3FE28205A
:1056F000FCF7F0FE2F20FCF7EDFE0F20FCF7EAFE92
:105700001120FCF703FFC820FCF74EFF2920FCF70F
:10571000FDFEBDE808402C20FCF7F8BE08B5FCF7FC
:10572000C9FE0321D320FCF70DFF80B208BD10B5E0
:10573000C4B2022203212046FCF772FE0A20FCF7C5
:10574000B7FE204600220321FCF76AFEBDE81040A8
:105750000220FCF7ADBE38B50446E4B2FCF75EFEAD
:1057600000212046FCF774FE012105462046FCF787
:105770006FFE40EA052080B238BD10B5C4B24021AA
:105780002046FCF765FE030607D54C212046FCF7B2
:105790005FFE003818BF012010BD01224B212046BA
:1057A000FCF73EFE204600224B21FCF739FE00208C
:1057B000F2E773B50423C4B20E461546D7210DEBAC
:1057C00003022046FCF75EFE019B1BBA1A0DC3F3D1
:1057D0000B23328020462B8001224B21FCF720FE38
:1057E00000224B212046FCF71BFE02B070BD0000DA
:1057F00010B50A4A1378984204460DD05178884271
:105800000AD00BB141B90123D454FCF707FE20465E
:10581000BDE81040FFF78BBF10BD00BF942A0020E9
:1058200010B5C4B209212046FCF712FE40F0010277
:10583000D2B220460921BDE81040FCF7F1BD10B5F9
:10584000C4B209212046FCF703FE092100F0FE0244
:105850002046BDE81040FCF7E3BD38B5C4B20D46A4
:1058600020460A21FCF7F4FD40EA0502D2B22046A8
:105870000A21BDE83840FCF7D3BD10B50446FCF75B
:10588000CEFD20461F21FFF7E8FF2046BDE810406F
:10589000FFF7C6BF38B5C4B20D4620460A21FCF753
:1058A000D7FD20EA0502D2B220460A21BDE83840E1
:1058B000FCF7B6BD10B50446FFF7C1FF20461F2117
:1058C000BDE81040FFF7E6BF10B5C0B20C460B2193
:1058D000FCF7BEFD204010BD1F21FFF7F5BF0A46B3
:1058E000C0B20B21FCF79CBD1F21FFF7F8BF38B5F4
:1058F000C4B20D4620461721FCF7AAFD20EA050296
:10590000D2B220461721BDE83840FCF789BD70B5FA
:10591000C4B2064604212046FCF79AFD042100F09B
:10592000FB0205462046FCF77BFD3046F021FFF7E1
:10593000DEFF05F0F80220460421FCF771FD492244
:1059400020212046FCF76CFD0220FCF7B1FD20462B
:1059500001222121FCF764FD20469A224121FCF717
:105960005FFD204601224A21FCF75AFD2046012214
:105970004B21FCF755FD204600224B21FCF750FD42
:10598000204601225621FCF74BFD204601225821DA
:10599000FCF746FD204601224021FCF741FD204650
:1059A000FF220B21FCF73CFDBDE870400220FCF714
:1059B0007FBD0000054BD3F8882042F47002C3F885
:1059C00088204FF000629A60704700BF00ED00E051
:1059D00008B50B4B1A6842F400721A601A6842F458
:1059E00080621A601A6842F480721A60032000F024
:1059F00061FA0020FDF75EF8FCF7E4FD002008BD29
:105A0000003C0240034A044B11681B780B441360AE
:105A1000704700BF982A002078000020014B1868CA
:105A2000704700BF982A002038B50446FFF7F6FFFC
:105A3000631C1CBF054B1B78054618BFE418FFF715
:105A4000EDFF431BA342FAD338BD00BF780000200E
:105A500038B50446002800F09B80056C25B9FCF79A
:105A6000E9FD656484F83C50236CDB0600F18E8010
:105A7000236C23F4885323F0020343F002032364CE
:105A8000444B5A6822F440325A605A6861680A43AB
:105A90005A60236821695A6822F480725A605A68F1
:105AA00042EA01225A605A68A16822F040725A60A4
:105AB0005A680A435A609A68E16822F400629A6060
:105AC0009A680A439A603449A26A8A4252D0996815
:105AD00021F07061996099680A439A609A68E16A56
